:0400000080313928EA
:100008007E14803100308600003087004E01901C3D
:100018000F281012101641019A1B901F26284E0116
:1000280010080139F2000C08F300730881316B21C4
:1000380080317206031D262873084001B100AF0104
:100048000130B0004101171B0D1F37280D13FE307A
:1000580046018D00CA308C00C83040012F020318B9
:1000680037280130AF077E10090080313B28400156
:10007800AF01B001B1017E104001803143288031C9
:10008800FA2080314001AE0164008131872180313E
:10009800AC003008031D5428E7302C02031C6A28E2
:1000A800B0014101101F552840012C0881314F2112
:1000B8008031A0004E01110840012006FE392006BB
:1000C8004E01910040012C084E018D000530400181
:1000D8002C02031CB1013108031D74282C0879284F
:1000E800C8302F02031C7B280530AE00DD281A30EB
:1000F8003102031883281930A500003089283108F7
:10010800A000A1012008A5002108A6002508AD002F
:100118002D082E020318B5282D08A000A1012108DA
:10012800A3002E082002A200031CA3032308803A80
:10013800A40080302402031DA32803302202031CDC
:10014800AB2803304001A7000030A800B2284001C6
:100158002E082D02A700A801031CA8032708AE0734
:10016800DD282E082D020318DD282E08A000A10185
:100178002108A3002D082002A200031CA3032308C2
:10018800803AA40080302402031DCC2803302202C8
:10019800031CD42803304001A9000030AA00DB2842
:1001A80040012D082E02A900AA01031CAA03290850
:1001B800AE022E0851018D00053040012E02031CAD
:1001C800E7280130E8280030AB002B0C5201031C53
:1001D8008C1303188C1740012B08031DF6284001C7
:1001E8001215F82840011211630048280130450112
:1001F8009300400112167D010C16400192167D01F4
:100208008C12400198127D010C150D104001181038
:100218007D010E144001121092147D018C100130E2
:100228007C01C20014307B018C007A01A6172616C7
:100238002608F3390438A60004309F0051018C17B2
:1002480052010E088F3910388E000E08F83902381E
:100258008E008C134E019215111533308E008F01CC
:100268001117101791161016901741019A170B17AE
:100278008B1745011116033046019100CF308E05CA
:10028800FE308D00CA308C004101171746010E144C
:1002980045018C170800F5007508F4000430F436A1
:1002A800890B53297408F5067508F4000230F436F2
:1002B800890B5B297408F5067508F4000130F436DB
:1002C800890B63297408F506750801390800F100DF
:1002D8007108F0000430F036890B6F297008F106B8
:1002E8007108F0000230F036890B77297008F106A2
:1002F8007108F0000130F036890B7F297008F1068B
:10030800710801390800400192120830890B8A29C6
:1003180000007A01261426188F291E08F5001D08EA
:10032800F4000430F536F40C890B96297408F600AD
:0803380040019216760808004E
:020000040001F9
:0A000E00EC3FFF3FE53FFF3FFF3FDF
:00000001FF
