:08000000803102288731E92F4D
:100C2C00FE0012001E00FE0B172E00348434D0344C
:100C3C0064340834803404341434023435341434B9
:100C4C0061344101101F272E400143088631502684
:100C5C00F2004E0111087206FE3972069100400135
:100C6C0043084E018D0008007D0851018D000530B0
:100C7C007D02031C442E51018C16462E51018C1200
:100C8C0080307D02031C4D2E51010C1708005101C0
:100C9C000C130800F1007108F0000430F036890BD9
:100CAC00542E7008F1067108F0000230F036890BF2
:100CBC005C2E7008F1067108F0000130F036890BDB
:100CCC00642E7008F1067108013908004E01901C61
:100CDC00712E101210164101901B762E0030080058
:100CEC004E01100C890C0139F20010080139F30087
:100CFC000C08F4007208031D742E740886315026FB
:100D0C0086317306031D742E74084001C400C201A1
:100D1C00013008007A01A61740019212003200320D
:100D2C0000327A012614E830F7000330F800A62EC2
:100D3C000130F7020030F83B770878040319A82E2D
:100D4C0026189E2E77087804031DAF2EF401F501AA
:100D5C00BF2E1E08F1001D08F0000430F136F00C17
:100D6C00890BB42E7008F200F3017208F4007308BA
:100D7C00F5007408F600400192167A01A613760865
:100D8C00080087316C2786318631902686314001E8
:100D9C00C300640086316C268631FC007C08031984
:100DAC00DA2E86312726863141010E1DCF2E0E11EB
:100DBC008631902686314001C30005304302031C66
:100DCC00C4017C08031DF12EE7304302031CF12EF5
:100DDC008631272686318631FF26863186313A26A2
:100DEC008631C830400142020318CF2E0130C207B1
:100DFC00CF2E40014408031D062F4308FD000800B8
:100E0C00C8304202031C0D2F0530FD0008001A30BB
:100E1C0044020318152F1930F50000301B2F44081D
:100E2C00F000F1017008F5007108F6007508FB0080
:100E3C007B087D020318452F7B08F000F101710837
:100E4C00F3007D087002F200031CF3037308803A70
:100E5C00F40080307402031D352F03307202031C22
:100E6C003C2F0330F7000030F800422F7D087B0246
:100E7C00F700F801031CF8037708FD0708007D084C
:100E8C007B02031808007D08F000F1017108F300E3
:100E9C007B087002F200031CF3037308803AF40021
:100EAC0080307402031D5C2F03307202031C632F0D
:100EBC000330F9000030FA00692F7B087D02F9003D
:100ECC00FA01031CFA037908FD020800450193019D
:100EDC0040013C08A000200845018D00E83040018D
:100EEC00B0000330B100832F01304001B00200305C
:100EFC00B13B300831040319862F45010F1E7A2FA0
:100F0C0040013B08A10021087D018C0040013A08FA
:100F1C00A200220892004108A30023089800400870
:100F2C00A40024087D018D0040013908A500250886
:100F3C007D018E007C01C20113307B018D008C0180
:100F4C0040013808A60026087A01A600400137089F
:100F5C00A70027087A019F0040013608A80028083E
:100F6C0051018C0040013508A90029084E0192005E
:100F7C0040013408AA002A084E01910040013308B0
:100F8C00AB002B084E0190000C308E008F0101300D
:100F9C0047019000F9308D0040013208AC002C085C
:100FAC0047018E0040013F08AD002D088B003E0824
:100FBC00AE002E0841019A0040013D08AF002F08F9
:100FCC004101980008001C308400863085003230C6
:100FDC008600003087000B3086311626FD01BD01DE
:100FEC00BE01BF01C001C101C201C301C401400166
:040FFC008631C72E45
:020000040001F9
:0A000E00EC3FFF3FE53FFF3FFF3FDF
:00000001FF
