:0400000080312E28F5
:100008007E148031003086000030870041019A1B41
:10001800901F22284E0110080139F2000C084001F7
:10002800B1003108813161218031F3007208730613
:10003800031D2228AE01AF010130B0004101171B9A
:100048000D1F2C280D13FE3046018D00CA308C0080
:100058007E100900803130284001AE01AF01B001A7
:10006800B1017E104001803139288031F120803182
:100078004001AD016400003040012F02C83003196F
:100088002E0203184B280130AE070030AF3D8131F6
:100098007D218031AB003008031D5628E7302B0244
:1000A800031C6C28B0014101101F572840012B0880
:1000B800813145218031A0004E0111084001200600
:1000C800FE3920064E01910040012B084E018D009B
:1000D800053040012B02031CB1013108031D7628AD
:1000E8002B087E2800302F02C83003192E02031C6B
:1000F80080280530AD00E2281A303102031888281C
:100108001930A50000308E283108A000A101200870
:10011800A5002108A6002508AC002C082D0203180C
:10012800BA282C08A000A1012108A3002D0820024C
:10013800A200031CA3032308803AA40080302402F1
:10014800031DA82803302202031CB02803304001F5
:10015800A7000030A800B72840012D082C02A700EE
:10016800A801031CA8032708AD07E2282D082C02C4
:100178000318E2282D08A000A1012108A3002C08DB
:100188002002A200031CA3032308803AA4008030A5
:100198002402031DD12803302202031CD92803306E
:1001A8004001A9000030AA00E02840012C082D02D7
:1001B800A900AA01031CAA032908AD022D085101B0
:1001C8008D00053040012D02031CED2852018C17CB
:1001D800EF2852018C1363003E280130450193003B
:1001E800400112167D010C16400192167D018C12F9
:1001F8004001981212117D010C150D1040011810C4
:100208007D010E144001121092147D018C100130F2
:100218007C01C20014307B018C007A01A6172616D7
:100228002608F3390438A60004309F0051018C17C2
:1002380052010E088F3910388E000E08F83902382E
:100248008E008C134E019215111533308E008F01DC
:100258001117101791161016901741019A170B17BE
:100268008B1745011116033046019100CF308E05DA
:10027800FE308D00CA308C004101171746010E145C
:100288000800F5007508F4000430F436890B492994
:100298007408F5067508F4000230F436890B512904
:1002A8007408F5067508F4000130F436890B5929ED
:1002B8007408F506750801390800F1007108F000A6
:1002C8000430F036890B65297008F1067108F000D2
:1002D8000230F036890B6D297008F1067108F000BC
:1002E8000130F036890B75297008F106710801395B
:1002F800080092120830890B7F2900007A01261421
:10030800261884291E08F5001D08F4000430F53667
:10031800F40C890B8B297408F600400192167608B4
:020328000800CB
:020000040001F9
:0A000E00EC3FFF3FE53FFF3FFF3FDF
:00000001FF
