:08000000803102288731E82F4E
:100C1000FE0012001E00FE0B092E0034A434D03456
:100C200064340834123480341434023435341434C7
:100C300060344101101F192E4001450886314626B7
:100C4000F2004E0111087206FE3972069100400151
:100C500045084E018D0008007D0851018D000530CA
:100C60007D02031C352E0130362E0030F000700C52
:100C70005201031C8C1303188C177008031D432E9C
:100C8000400112150800400112110800F10071081E
:100C9000F0000430F036890B4A2E7008F106710816
:100CA000F0000230F036890B522E7008F106710800
:100CB000F0000130F036890B5A2E7008F1067108E9
:100CC000013908004E01901C672E101210164101C8
:100CD000901B6C2E003008004E01100C890C01395D
:100CE000F20010080139F3000C08F4007208031D2B
:100CF0006A2E74088631462686317306031D6A2ED5
:100D000074084001C600C401013008008731622721
:100D100086318631BD2686314001C50064008631AA
:100D200062268631FC007C080319992E863119262B
:100D3000863141010E1D8E2E0E118631BD26863163
:100D40004001C50005304502031CC6017C08031D97
:100D5000B02EE7304502031CB02E863119268631AD
:100D60008631F526863186312C268631C8304402FC
:100D700003188E2E0130C4078E2E7A01A61740016B
:100D800092120830890BC22E00007A012614E83036
:100D9000F7000330F800D42E0130F7020030F83BA2
:100DA000770878040319D62E2618CC2E77087804F5
:100DB000031DDD2EF401F501ED2E1E08F1001D08C6
:100DC000F0000430F136F00C890BE22E7008F200CE
:100DD000F3017208F4007308F5007408F60040018E
:100DE00092167A01A6137608080040014608031DF2
:100DF000FC2E4508FD000800C8304402031C032FE8
:100E00000530FD0008001A30460203180B2F193078
:100E1000F5000030112F4608F000F1017008F500D0
:100E20007108F6007508FB007B087D0203183B2F54
:100E30007B08F000F1017108F3007D087002F200F8
:100E4000031CF3037308803AF40080307402031D1E
:100E50002B2F03307202031C322F0330F7000030B7
:100E6000F800382F7D087B02F700F801031CF80317
:100E70007708FD0708007D087B02031808007D083D
:100E8000F000F1017108F3007B087002F200031C0E
:100E9000F3037308803AF40080307402031D522F6C
:100EA00003307202031C592F0330F9000030FA009E
:100EB0005F2F7B087D02F900FA01031CFA03790811
:100EC000FD02080001304501930040013D08A000EB
:100ED000200845018D00E8304001B1000330B20028
:100EE0007A2F01304001B1020030B23B31083204A8
:100EF00003197D2F45010F1E712F40013C08A100F1
:100F000021087D018C0040013B08A20022089200CC
:100F10004308A300230898004208A40024087D0188
:100F20008D0040013A08A50025087D018E007C0156
:100F3000C20113307B018D008C0140013908A600ED
:100F400026087A01A60004309F0040013808A70057
:100F5000270851018C0040013708A80028085201D9
:100F60008E0040014108A900290852018C0040016F
:100F70003608AA002A084E01920040013508AB004D
:100F80002B084E01910040013408AC002C084E01A2
:100F9000900033308E008F01013047019000F9300E
:100FA0008D0040013308AD002D0847018E0040013F
:100FB0004008AE002E088B003F08AF002F0841010B
:100FC0009A0040013E08B000300841019800080036
:100FD0000E30840086308500333086000030870074
:100FE0000B3086310826FD01BE01BF01C001C101E1
:100FF000C201C301C401C501C60140018631862E6C
:020000040001F9
:0A000E00EC3FFF3FE53FFF3FFF3FDF
:00000001FF
